{
  "_format": "hh-sol-artifact-1",
  "contractName": "Voting",
  "sourceName": "contracts/Voting.sol",
  "abi": [
    {
      "inputs": [
        {
          "internalType": "string",
          "name": "_title",
          "type": "string"
        },
        {
          "internalType": "uint256",
          "name": "_startTime",
          "type": "uint256"
        },
        {
          "internalType": "uint256",
          "name": "_duration",
          "type": "uint256"
        }
      ],
      "stateMutability": "nonpayable",
      "type": "constructor"
    },
    {
      "anonymous": false,
      "inputs": [
        {
          "indexed": false,
          "internalType": "uint256",
          "name": "ballotId",
          "type": "uint256"
        },
        {
          "indexed": false,
          "internalType": "string",
          "name": "title",
          "type": "string"
        }
      ],
      "name": "BallotCreated",
      "type": "event"
    },
    {
      "anonymous": false,
      "inputs": [
        {
          "indexed": true,
          "internalType": "address",
          "name": "voter",
          "type": "address"
        },
        {
          "indexed": false,
          "internalType": "uint256",
          "name": "ballotId",
          "type": "uint256"
        },
        {
          "indexed": false,
          "internalType": "bytes32",
          "name": "commitment",
          "type": "bytes32"
        }
      ],
      "name": "VoteRecorded",
      "type": "event"
    },
    {
      "inputs": [
        {
          "internalType": "uint256",
          "name": "_ballotId",
          "type": "uint256"
        },
        {
          "internalType": "string",
          "name": "_name",
          "type": "string"
        }
      ],
      "name": "addProposal",
      "outputs": [],
      "stateMutability": "nonpayable",
      "type": "function"
    },
    {
      "inputs": [
        {
          "internalType": "uint256",
          "name": "",
          "type": "uint256"
        }
      ],
      "name": "ballots",
      "outputs": [
        {
          "internalType": "uint256",
          "name": "ballotId",
          "type": "uint256"
        },
        {
          "internalType": "string",
          "name": "title",
          "type": "string"
        },
        {
          "internalType": "uint256",
          "name": "startTime",
          "type": "uint256"
        },
        {
          "internalType": "uint256",
          "name": "duration",
          "type": "uint256"
        },
        {
          "internalType": "bool",
          "name": "terminated",
          "type": "bool"
        },
        {
          "internalType": "string",
          "name": "result",
          "type": "string"
        },
        {
          "internalType": "address",
          "name": "admin",
          "type": "address"
        },
        {
          "internalType": "uint256",
          "name": "proposalCount",
          "type": "uint256"
        }
      ],
      "stateMutability": "view",
      "type": "function"
    },
    {
      "inputs": [
        {
          "internalType": "uint256",
          "name": "_ballotId",
          "type": "uint256"
        },
        {
          "internalType": "bytes32",
          "name": "_commitment",
          "type": "bytes32"
        }
      ],
      "name": "commitVote",
      "outputs": [],
      "stateMutability": "nonpayable",
      "type": "function"
    },
    {
      "inputs": [
        {
          "internalType": "string",
          "name": "_title",
          "type": "string"
        },
        {
          "internalType": "uint256",
          "name": "_startTime",
          "type": "uint256"
        },
        {
          "internalType": "uint256",
          "name": "_duration",
          "type": "uint256"
        }
      ],
      "name": "createBallot",
      "outputs": [],
      "stateMutability": "nonpayable",
      "type": "function"
    },
    {
      "inputs": [
        {
          "internalType": "uint256",
          "name": "_ballotId",
          "type": "uint256"
        }
      ],
      "name": "finalizeResult",
      "outputs": [],
      "stateMutability": "nonpayable",
      "type": "function"
    },
    {
      "inputs": [
        {
          "internalType": "uint256",
          "name": "_ballotId",
          "type": "uint256"
        },
        {
          "internalType": "bytes32",
          "name": "_commitment",
          "type": "bytes32"
        }
      ],
      "name": "getCommitment",
      "outputs": [
        {
          "internalType": "bool",
          "name": "",
          "type": "bool"
        }
      ],
      "stateMutability": "view",
      "type": "function"
    },
    {
      "inputs": [
        {
          "internalType": "uint256",
          "name": "_ballotId",
          "type": "uint256"
        },
        {
          "internalType": "uint256",
          "name": "_proposalId",
          "type": "uint256"
        }
      ],
      "name": "getProposal",
      "outputs": [
        {
          "components": [
            {
              "internalType": "uint256",
              "name": "index",
              "type": "uint256"
            },
            {
              "internalType": "string",
              "name": "name",
              "type": "string"
            },
            {
              "internalType": "uint256",
              "name": "voteCount",
              "type": "uint256"
            }
          ],
          "internalType": "struct Voting.Proposal",
          "name": "",
          "type": "tuple"
        }
      ],
      "stateMutability": "view",
      "type": "function"
    },
    {
      "inputs": [
        {
          "internalType": "uint256",
          "name": "_ballotId",
          "type": "uint256"
        }
      ],
      "name": "getResult",
      "outputs": [
        {
          "internalType": "string",
          "name": "",
          "type": "string"
        }
      ],
      "stateMutability": "view",
      "type": "function"
    },
    {
      "inputs": [
        {
          "internalType": "uint256",
          "name": "_ballotId",
          "type": "uint256"
        }
      ],
      "name": "getVoteCounts",
      "outputs": [
        {
          "internalType": "uint256[]",
          "name": "",
          "type": "uint256[]"
        }
      ],
      "stateMutability": "view",
      "type": "function"
    },
    {
      "inputs": [
        {
          "internalType": "uint256",
          "name": "_ballotId",
          "type": "uint256"
        },
        {
          "internalType": "address",
          "name": "_voterAddress",
          "type": "address"
        }
      ],
      "name": "getVoter",
      "outputs": [
        {
          "components": [
            {
              "internalType": "bool",
              "name": "isRegistered",
              "type": "bool"
            },
            {
              "internalType": "bool",
              "name": "hasVoted",
              "type": "bool"
            },
            {
              "internalType": "uint256",
              "name": "vote",
              "type": "uint256"
            },
            {
              "internalType": "bytes32",
              "name": "voteHash",
              "type": "bytes32"
            }
          ],
          "internalType": "struct Voting.Voter",
          "name": "",
          "type": "tuple"
        }
      ],
      "stateMutability": "view",
      "type": "function"
    },
    {
      "inputs": [],
      "name": "nextBallotId",
      "outputs": [
        {
          "internalType": "uint256",
          "name": "",
          "type": "uint256"
        }
      ],
      "stateMutability": "view",
      "type": "function"
    },
    {
      "inputs": [
        {
          "internalType": "uint256",
          "name": "_ballotId",
          "type": "uint256"
        },
        {
          "internalType": "address",
          "name": "voter",
          "type": "address"
        }
      ],
      "name": "registerVoter",
      "outputs": [],
      "stateMutability": "nonpayable",
      "type": "function"
    },
    {
      "inputs": [
        {
          "internalType": "uint256",
          "name": "_ballotId",
          "type": "uint256"
        },
        {
          "internalType": "uint256",
          "name": "_proposalId",
          "type": "uint256"
        },
        {
          "internalType": "bytes32",
          "name": "_salt",
          "type": "bytes32"
        }
      ],
      "name": "revealVote",
      "outputs": [],
      "stateMutability": "nonpayable",
      "type": "function"
    },
    {
      "inputs": [
        {
          "internalType": "uint256",
          "name": "_ballotId",
          "type": "uint256"
        }
      ],
      "name": "terminateVoting",
      "outputs": [],
      "stateMutability": "nonpayable",
      "type": "function"
    }
  ],
  "bytecode": "0x608060405234801561001057600080fd5b506040516137283803806137288339818101604052810190610032919061034c565b6001808190555060008060006001548152602001908152602001600020905060015481600001819055508381600101908161006d91906105d2565b5082816002018190555081816003018190555060008160040160006101000a81548160ff021916908315150217905550604051806020016040528060008152508160050190816100bd91906105d2565b50338160060160006101000a81548173ffffffffffffffffffffffffffffffffffffffff021916908373ffffffffffffffffffffffffffffffffffffffff16021790555060008160090181905550600181600a016000604051602001610122906106fb565b60405160208183030381529060405280519060200120815260200190815260200160002060006101000a81548160ff0219169083151502179055507f0db6f49479669554c6eefe11608543e654d387ff0d23b6b36f365fd261f6a4e060015485604051610190929190610769565b60405180910390a150505050610799565b6000604051905090565b600080fd5b600080fd5b600080fd5b600080fd5b6000601f19601f8301169050919050565b7f4e487b7100000000000000000000000000000000000000000000000000000000600052604160045260246000fd5b610208826101bf565b810181811067ffffffffffffffff82111715610227576102266101d0565b5b80604052505050565b600061023a6101a1565b905061024682826101ff565b919050565b600067ffffffffffffffff821115610266576102656101d0565b5b61026f826101bf565b9050602081019050919050565b60005b8381101561029a57808201518184015260208101905061027f565b60008484015250505050565b60006102b96102b48461024b565b610230565b9050828152602081018484840111156102d5576102d46101ba565b5b6102e084828561027c565b509392505050565b600082601f8301126102fd576102fc6101b5565b5b815161030d8482602086016102a6565b91505092915050565b6000819050919050565b61032981610316565b811461033457600080fd5b50565b60008151905061034681610320565b92915050565b600080600060608486031215610365576103646101ab565b5b600084015167ffffffffffffffff811115610383576103826101b0565b5b61038f868287016102e8565b93505060206103a086828701610337565b92505060406103b186828701610337565b9150509250925092565b600081519050919050565b7f4e487b7100000000000000000000000000000000000000000000000000000000600052602260045260246000fd5b6000600282049050600182168061040d57607f821691505b6020821081036104205761041f6103c6565b5b50919050565b60008190508160005260206000209050919050565b60006020601f8301049050919050565b600082821b905092915050565b6000600883026104887fffffffffffffffffffffffffffffffffffffffffffffffffffffffffffffffff8261044b565b610492868361044b565b95508019841693508086168417925050509392505050565b6000819050919050565b60006104cf6104ca6104c584610316565b6104aa565b610316565b9050919050565b6000819050919050565b6104e9836104b4565b6104fd6104f5826104d6565b848454610458565b825550505050565b600090565b610512610505565b61051d8184846104e0565b505050565b5b818110156105415761053660008261050a565b600181019050610523565b5050565b601f8211156105865761055781610426565b6105608461043b565b8101602085101561056f578190505b61058361057b8561043b565b830182610522565b50505b505050565b600082821c905092915050565b60006105a96000198460080261058b565b1980831691505092915050565b60006105c28383610598565b9150826002028217905092915050565b6105db826103bb565b67ffffffffffffffff8111156105f4576105f36101d0565b5b6105fe82546103f5565b610609828285610545565b600060209050601f83116001811461063c576000841561062a578287015190505b61063485826105b6565b86555061069c565b601f19841661064a86610426565b60005b828110156106725784890151825560018201915060208501945060208101905061064d565b8683101561068f578489015161068b601f891682610598565b8355505b6001600288020188555050505b505050505050565b600081905092915050565b7f64756d6d79000000000000000000000000000000000000000000000000000000600082015250565b60006106e56005836106a4565b91506106f0826106af565b600582019050919050565b6000610706826106d8565b9150819050919050565b61071981610316565b82525050565b600082825260208201905092915050565b600061073b826103bb565b610745818561071f565b935061075581856020860161027c565b61075e816101bf565b840191505092915050565b600060408201905061077e6000830185610710565b81810360208301526107908184610730565b90509392505050565b612f80806107a86000396000f3fe608060405234801561001057600080fd5b50600436106100ea5760003560e01c80638f47b1461161008c5780639da69180116100665780639da6918014610272578063aba210091461028e578063d3c9a741146102be578063dc6bfbb5146102da576100ea565b80638f47b146146101f657806394c790bb14610226578063995e433914610242576100ea565b8063283e6b24116100c8578063283e6b24146101435780632ec7d5ae146101735780635c632b381461018f5780638a241f4c146101c6576100ea565b8063051097ef146100ef578063103dadd51461010b5780631d2cd64414610127575b600080fd5b61010960048036038101906101049190611d89565b6102f8565b005b61012560048036038101906101209190611de5565b6104bb565b005b610141600480360381019061013c9190611e8a565b6105e4565b005b61015d60048036038101906101589190611edd565b610999565b60405161016a9190611f38565b60405180910390f35b61018d60048036038101906101889190611f53565b6109d7565b005b6101a960048036038101906101a49190611f53565b610dad565b6040516101bd98979695949392919061204f565b60405180910390f35b6101e060048036038101906101db9190611f53565b610f32565b6040516101ed9190612199565b60405180910390f35b610210600480360381019061020b91906121e7565b6110db565b60405161021d919061229a565b60405180910390f35b610240600480360381019061023b91906121e7565b611192565b005b61025c60048036038101906102579190611f53565b611474565b60405161026991906122b5565b60405180910390f35b61028c60048036038101906102879190611edd565b6115ef565b005b6102a860048036038101906102a391906122d7565b6119e6565b6040516102b591906123b1565b60405180910390f35b6102d860048036038101906102d39190611f53565b611acd565b005b6102e2611ba3565b6040516102ef91906123d3565b60405180910390f35b8160008082815260200190815260200160002060060160009054906101000a900473ffffffffffffffffffffffffffffffffffffffff1673ffffffffffffffffffffffffffffffffffffffff163373ffffffffffffffffffffffffffffffffffffffff161461039c576040517f08c379a000000000000000000000000000000000000000000000000000000000815260040161039390612460565b60405180910390fd5b8260008060008381526020019081526020016000209050806002015442106103f9576040517f08c379a00000000000000000000000000000000000000000000000000000000081526004016103f0906124cc565b60405180910390fd5b60008060008781526020019081526020016000209050600080600088815260200190815260200160002060090154905060405180606001604052808281526020018781526020016000815250600080898152602001908152602001600020600801600083815260200190815260200160002060008201518160000155602082015181600101908161048a91906126f8565b50604082015181600201559050508160090160008154809291906104ad906127f9565b919050555050505050505050565b6000600160008154809291906104d0906127f9565b919050559050600080600083815260200190815260200160002090508181600001819055508481600101908161050691906126f8565b5083816002018190555082816003018190555060008160040160006101000a81548160ff0219169083151502179055506040518060200160405280600081525081600501908161055691906126f8565b50338160060160006101000a81548173ffffffffffffffffffffffffffffffffffffffff021916908373ffffffffffffffffffffffffffffffffffffffff160217905550600081600901819055507f0db6f49479669554c6eefe11608543e654d387ff0d23b6b36f365fd261f6a4e082866040516105d5929190612841565b60405180910390a15050505050565b82600080600083815260200190815260200160002090508060030154816002015461060f9190612871565b421015610651576040517f08c379a0000000000000000000000000000000000000000000000000000000008152600401610648906128f1565b60405180910390fd5b8460008082815260200190815260200160002060040160009054906101000a900460ff16156106b5576040517f08c379a00000000000000000000000000000000000000000000000000000000081526004016106ac9061295d565b60405180910390fd5b60008087815260200190815260200160002060070160003373ffffffffffffffffffffffffffffffffffffffff1673ffffffffffffffffffffffffffffffffffffffff16815260200190815260200160002060000160019054906101000a900460ff16610757576040517f08c379a000000000000000000000000000000000000000000000000000000000815260040161074e906129ef565b60405180910390fd5b848460405160200161076a929190612a51565b6040516020818303038152906040528051906020012060008088815260200190815260200160002060070160003373ffffffffffffffffffffffffffffffffffffffff1673ffffffffffffffffffffffffffffffffffffffff1681526020019081526020016000206002015414610816576040517f08c379a000000000000000000000000000000000000000000000000000000000815260040161080d90612ac9565b60405180910390fd5b6000858560405160200161082b929190612a51565b604051602081830303815290604052805190602001209050600080888152602001908152602001600020600a01600082815260200190815260200160002060009054906101000a900460ff166108b6576040517f08c379a00000000000000000000000000000000000000000000000000000000081526004016108ad90612b35565b60405180910390fd5b8560008089815260200190815260200160002060070160003373ffffffffffffffffffffffffffffffffffffffff1673ffffffffffffffffffffffffffffffffffffffff1681526020019081526020016000206001018190555060016000808981526020019081526020016000206008016000888152602001908152602001600020600201600082825461094a9190612871565b925050819055506000806000898152602001908152602001600020600a01600083815260200190815260200160002060006101000a81548160ff02191690831515021790555050505050505050565b6000806000848152602001908152602001600020600a01600083815260200190815260200160002060009054906101000a900460ff16905092915050565b8060008082815260200190815260200160002060060160009054906101000a900473ffffffffffffffffffffffffffffffffffffffff1673ffffffffffffffffffffffffffffffffffffffff163373ffffffffffffffffffffffffffffffffffffffff1614610a7b576040517f08c379a0000000000000000000000000000000000000000000000000000000008152600401610a7290612460565b60405180910390fd5b816000806000838152602001908152602001600020905080600301548160020154610aa69190612871565b421015610ae8576040517f08c379a0000000000000000000000000000000000000000000000000000000008152600401610adf906128f1565b60405180910390fd5b8360008082815260200190815260200160002060040160009054906101000a900460ff1615610b4c576040517f08c379a0000000000000000000000000000000000000000000000000000000008152600401610b439061295d565b60405180910390fd5b60008080600088815260200190815260200160002060090154905060008167ffffffffffffffff811115610b8357610b82611c5e565b5b604051908082528060200260200182016040528015610bb15781602001602082028036833780820191505090505b5090506000606060005b84811015610cb757856000808d81526020019081526020016000206008016000838152602001908152602001600020600201541115610c4a576000808c815260200190815260200160002060080160008281526020019081526020016000206002015495508084600081518110610c3557610c34612b55565b5b60200260200101818152505060019250610caa565b856000808d815260200190815260200160002060080160008381526020019081526020016000206002015403610ca95780848481518110610c8e57610c8d612b55565b5b6020026020010181815250508280610ca5906127f9565b9350505b5b8080600101915050610bbb565b50604051806060016040528060218152602001612f2a60219139905060005b82811015610d7d576000811115610d0a5781604051602001610cf89190612c0c565b60405160208183030381529060405291505b816000808d81526020019081526020016000206008016000868481518110610d3557610d34612b55565b5b60200260200101518152602001908152602001600020600101604051602001610d5f929190612cb1565b60405160208183030381529060405291508080600101915050610cd6565b50806000808c81526020019081526020016000206005019081610da091906126f8565b5050505050505050505050565b6000602052806000526040600020600091509050806000015490806001018054610dd69061251b565b80601f0160208091040260200160405190810160405280929190818152602001828054610e029061251b565b8015610e4f5780601f10610e2457610100808354040283529160200191610e4f565b820191906000526020600020905b815481529060010190602001808311610e3257829003601f168201915b5050505050908060020154908060030154908060040160009054906101000a900460ff1690806005018054610e839061251b565b80601f0160208091040260200160405190810160405280929190818152602001828054610eaf9061251b565b8015610efc5780601f10610ed157610100808354040283529160200191610efc565b820191906000526020600020905b815481529060010190602001808311610edf57829003601f168201915b5050505050908060060160009054906101000a900473ffffffffffffffffffffffffffffffffffffffff16908060090154905088565b6060816000806000838152602001908152602001600020905080600301548160020154610f5f9190612871565b421015610fa1576040517f08c379a0000000000000000000000000000000000000000000000000000000008152600401610f98906128f1565b60405180910390fd5b8360008082815260200190815260200160002060040160009054906101000a900460ff1615611005576040517f08c379a0000000000000000000000000000000000000000000000000000000008152600401610ffc9061295d565b60405180910390fd5b600080600087815260200190815260200160002060090154905060008167ffffffffffffffff81111561103b5761103a611c5e565b5b6040519080825280602002602001820160405280156110695781602001602082028036833780820191505090505b50905060005b828110156110cd576000808981526020019081526020016000206008016000828152602001908152602001600020600201548282815181106110b4576110b3612b55565b5b602002602001018181525050808060010191505061106f565b508095505050505050919050565b6110e3611ba9565b60008084815260200190815260200160002060070160008373ffffffffffffffffffffffffffffffffffffffff1673ffffffffffffffffffffffffffffffffffffffff1681526020019081526020016000206040518060800160405290816000820160009054906101000a900460ff161515151581526020016000820160019054906101000a900460ff1615151515815260200160018201548152602001600282015481525050905092915050565b8160008082815260200190815260200160002060060160009054906101000a900473ffffffffffffffffffffffffffffffffffffffff1673ffffffffffffffffffffffffffffffffffffffff163373ffffffffffffffffffffffffffffffffffffffff1614611236576040517f08c379a000000000000000000000000000000000000000000000000000000000815260040161122d90612460565b60405180910390fd5b826000806000838152602001908152602001600020905080600201544210611293576040517f08c379a000000000000000000000000000000000000000000000000000000000815260040161128a906124cc565b60405180910390fd5b60008086815260200190815260200160002060070160008573ffffffffffffffffffffffffffffffffffffffff1673ffffffffffffffffffffffffffffffffffffffff16815260200190815260200160002060000160009054906101000a900460ff1615611336576040517f08c379a000000000000000000000000000000000000000000000000000000000815260040161132d90612d21565b60405180910390fd5b600160008087815260200190815260200160002060070160008673ffffffffffffffffffffffffffffffffffffffff1673ffffffffffffffffffffffffffffffffffffffff16815260200190815260200160002060000160006101000a81548160ff021916908315150217905550600080600087815260200190815260200160002060070160008673ffffffffffffffffffffffffffffffffffffffff1673ffffffffffffffffffffffffffffffffffffffff16815260200190815260200160002060000160016101000a81548160ff021916908315150217905550600080600087815260200190815260200160002060070160008673ffffffffffffffffffffffffffffffffffffffff1673ffffffffffffffffffffffffffffffffffffffff168152602001908152602001600020600101819055505050505050565b60608160008060008381526020019081526020016000209050806003015481600201546114a19190612871565b4210156114e3576040517f08c379a00000000000000000000000000000000000000000000000000000000081526004016114da906128f1565b60405180910390fd5b8360008082815260200190815260200160002060040160009054906101000a900460ff1615611547576040517f08c379a000000000000000000000000000000000000000000000000000000000815260040161153e9061295d565b60405180910390fd5b60008086815260200190815260200160002060050180546115679061251b565b80601f01602080910402602001604051908101604052809291908181526020018280546115939061251b565b80156115e05780601f106115b5576101008083540402835291602001916115e0565b820191906000526020600020905b8154815290600101906020018083116115c357829003601f168201915b50505050509350505050919050565b81600080600083815260200190815260200160002090508060020154421015801561162c5750806003015481600201546116299190612871565b42105b61166b576040517f08c379a000000000000000000000000000000000000000000000000000000000815260040161166290612d8d565b60405180910390fd5b8360008082815260200190815260200160002060040160009054906101000a900460ff16156116cf576040517f08c379a00000000000000000000000000000000000000000000000000000000081526004016116c69061295d565b60405180910390fd5b60008086815260200190815260200160002060070160003373ffffffffffffffffffffffffffffffffffffffff1673ffffffffffffffffffffffffffffffffffffffff16815260200190815260200160002060000160009054906101000a900460ff16611771576040517f08c379a000000000000000000000000000000000000000000000000000000000815260040161176890612df9565b60405180910390fd5b60008086815260200190815260200160002060070160003373ffffffffffffffffffffffffffffffffffffffff1673ffffffffffffffffffffffffffffffffffffffff16815260200190815260200160002060000160019054906101000a900460ff1615611814576040517f08c379a000000000000000000000000000000000000000000000000000000000815260040161180b90612e65565b60405180910390fd5b600080868152602001908152602001600020600a01600085815260200190815260200160002060009054906101000a900460ff1615611888576040517f08c379a000000000000000000000000000000000000000000000000000000000815260040161187f90612ed1565b60405180910390fd5b600160008087815260200190815260200160002060070160003373ffffffffffffffffffffffffffffffffffffffff1673ffffffffffffffffffffffffffffffffffffffff16815260200190815260200160002060000160016101000a81548160ff0219169083151502179055508360008087815260200190815260200160002060070160003373ffffffffffffffffffffffffffffffffffffffff1673ffffffffffffffffffffffffffffffffffffffff168152602001908152602001600020600201819055506001600080878152602001908152602001600020600a01600086815260200190815260200160002060006101000a81548160ff0219169083151502179055503373ffffffffffffffffffffffffffffffffffffffff167fcf29080ea99186dc8baaa2e6a6f711231d23e011039d240408cc5196ea3de70c86866040516119d7929190612f00565b60405180910390a25050505050565b6119ee611bd8565b600080848152602001908152602001600020600801600083815260200190815260200160002060405180606001604052908160008201548152602001600182018054611a399061251b565b80601f0160208091040260200160405190810160405280929190818152602001828054611a659061251b565b8015611ab25780601f10611a8757610100808354040283529160200191611ab2565b820191906000526020600020905b815481529060010190602001808311611a9557829003601f168201915b50505050508152602001600282015481525050905092915050565b8060008082815260200190815260200160002060060160009054906101000a900473ffffffffffffffffffffffffffffffffffffffff1673ffffffffffffffffffffffffffffffffffffffff163373ffffffffffffffffffffffffffffffffffffffff1614611b71576040517f08c379a0000000000000000000000000000000000000000000000000000000008152600401611b6890612460565b60405180910390fd5b600160008084815260200190815260200160002060040160006101000a81548160ff0219169083151502179055505050565b60015481565b604051806080016040528060001515815260200160001515815260200160008152602001600080191681525090565b60405180606001604052806000815260200160608152602001600081525090565b6000604051905090565b600080fd5b600080fd5b6000819050919050565b611c2081611c0d565b8114611c2b57600080fd5b50565b600081359050611c3d81611c17565b92915050565b600080fd5b600080fd5b6000601f19601f8301169050919050565b7f4e487b7100000000000000000000000000000000000000000000000000000000600052604160045260246000fd5b611c9682611c4d565b810181811067ffffffffffffffff82111715611cb557611cb4611c5e565b5b80604052505050565b6000611cc8611bf9565b9050611cd48282611c8d565b919050565b600067ffffffffffffffff821115611cf457611cf3611c5e565b5b611cfd82611c4d565b9050602081019050919050565b82818337600083830152505050565b6000611d2c611d2784611cd9565b611cbe565b905082815260208101848484011115611d4857611d47611c48565b5b611d53848285611d0a565b509392505050565b600082601f830112611d7057611d6f611c43565b5b8135611d80848260208601611d19565b91505092915050565b60008060408385031215611da057611d9f611c03565b5b6000611dae85828601611c2e565b925050602083013567ffffffffffffffff811115611dcf57611dce611c08565b5b611ddb85828601611d5b565b9150509250929050565b600080600060608486031215611dfe57611dfd611c03565b5b600084013567ffffffffffffffff811115611e1c57611e1b611c08565b5b611e2886828701611d5b565b9350506020611e3986828701611c2e565b9250506040611e4a86828701611c2e565b9150509250925092565b6000819050919050565b611e6781611e54565b8114611e7257600080fd5b50565b600081359050611e8481611e5e565b92915050565b600080600060608486031215611ea357611ea2611c03565b5b6000611eb186828701611c2e565b9350506020611ec286828701611c2e565b9250506040611ed386828701611e75565b9150509250925092565b60008060408385031215611ef457611ef3611c03565b5b6000611f0285828601611c2e565b9250506020611f1385828601611e75565b9150509250929050565b60008115159050919050565b611f3281611f1d565b82525050565b6000602082019050611f4d6000830184611f29565b92915050565b600060208284031215611f6957611f68611c03565b5b6000611f7784828501611c2e565b91505092915050565b611f8981611c0d565b82525050565b600081519050919050565b600082825260208201905092915050565b60005b83811015611fc9578082015181840152602081019050611fae565b60008484015250505050565b6000611fe082611f8f565b611fea8185611f9a565b9350611ffa818560208601611fab565b61200381611c4d565b840191505092915050565b600073ffffffffffffffffffffffffffffffffffffffff82169050919050565b60006120398261200e565b9050919050565b6120498161202e565b82525050565b600061010082019050612065600083018b611f80565b8181036020830152612077818a611fd5565b90506120866040830189611f80565b6120936060830188611f80565b6120a06080830187611f29565b81810360a08301526120b28186611fd5565b90506120c160c0830185612040565b6120ce60e0830184611f80565b9998505050505050505050565b600081519050919050565b600082825260208201905092915050565b6000819050602082019050919050565b61211081611c0d565b82525050565b60006121228383612107565b60208301905092915050565b6000602082019050919050565b6000612146826120db565b61215081856120e6565b935061215b836120f7565b8060005b8381101561218c5781516121738882612116565b975061217e8361212e565b92505060018101905061215f565b5085935050505092915050565b600060208201905081810360008301526121b3818461213b565b905092915050565b6121c48161202e565b81146121cf57600080fd5b50565b6000813590506121e1816121bb565b92915050565b600080604083850312156121fe576121fd611c03565b5b600061220c85828601611c2e565b925050602061221d858286016121d2565b9150509250929050565b61223081611f1d565b82525050565b61223f81611e54565b82525050565b60808201600082015161225b6000850182612227565b50602082015161226e6020850182612227565b5060408201516122816040850182612107565b5060608201516122946060850182612236565b50505050565b60006080820190506122af6000830184612245565b92915050565b600060208201905081810360008301526122cf8184611fd5565b905092915050565b600080604083850312156122ee576122ed611c03565b5b60006122fc85828601611c2e565b925050602061230d85828601611c2e565b9150509250929050565b600082825260208201905092915050565b600061233382611f8f565b61233d8185612317565b935061234d818560208601611fab565b61235681611c4d565b840191505092915050565b60006060830160008301516123796000860182612107565b50602083015184820360208601526123918282612328565b91505060408301516123a66040860182612107565b508091505092915050565b600060208201905081810360008301526123cb8184612361565b905092915050565b60006020820190506123e86000830184611f80565b92915050565b7f4f6e6c792061646d696e2063616e20706572666f726d2074686973206163746960008201527f6f6e000000000000000000000000000000000000000000000000000000000000602082015250565b600061244a602283611f9a565b9150612455826123ee565b604082019050919050565b600060208201905081810360008301526124798161243d565b9050919050565b7f566f74696e672068617320616c72656164792073746172746564000000000000600082015250565b60006124b6601a83611f9a565b91506124c182612480565b602082019050919050565b600060208201905081810360008301526124e5816124a9565b9050919050565b7f4e487b7100000000000000000000000000000000000000000000000000000000600052602260045260246000fd5b6000600282049050600182168061253357607f821691505b602082108103612546576125456124ec565b5b50919050565b60008190508160005260206000209050919050565b60006020601f8301049050919050565b600082821b905092915050565b6000600883026125ae7fffffffffffffffffffffffffffffffffffffffffffffffffffffffffffffffff82612571565b6125b88683612571565b95508019841693508086168417925050509392505050565b6000819050919050565b60006125f56125f06125eb84611c0d565b6125d0565b611c0d565b9050919050565b6000819050919050565b61260f836125da565b61262361261b826125fc565b84845461257e565b825550505050565b600090565b61263861262b565b612643818484612606565b505050565b5b818110156126675761265c600082612630565b600181019050612649565b5050565b601f8211156126ac5761267d8161254c565b61268684612561565b81016020851015612695578190505b6126a96126a185612561565b830182612648565b50505b505050565b600082821c905092915050565b60006126cf600019846008026126b1565b1980831691505092915050565b60006126e883836126be565b9150826002028217905092915050565b61270182611f8f565b67ffffffffffffffff81111561271a57612719611c5e565b5b612724825461251b565b61272f82828561266b565b600060209050601f8311600181146127625760008415612750578287015190505b61275a85826126dc565b8655506127c2565b601f1984166127708661254c565b60005b8281101561279857848901518255600182019150602085019450602081019050612773565b868310156127b557848901516127b1601f8916826126be565b8355505b6001600288020188555050505b505050505050565b7f4e487b7100000000000000000000000000000000000000000000000000000000600052601160045260246000fd5b600061280482611c0d565b91507fffffffffffffffffffffffffffffffffffffffffffffffffffffffffffffffff8203612836576128356127ca565b5b600182019050919050565b60006040820190506128566000830185611f80565b81810360208301526128688184611fd5565b90509392505050565b600061287c82611c0d565b915061288783611c0d565b925082820190508082111561289f5761289e6127ca565b5b92915050565b7f566f74696e6720706572696f6420686173206e6f7420656e6465642079657400600082015250565b60006128db601f83611f9a565b91506128e6826128a5565b602082019050919050565b6000602082019050818103600083015261290a816128ce565b9050919050565b7f566f74696e67206973207465726d696e61746564000000000000000000000000600082015250565b6000612947601483611f9a565b915061295282612911565b602082019050919050565b600060208201905081810360008301526129768161293a565b9050919050565b7f596f752068617665206e6f7420636f6d6d6974746564206120766f746520796560008201527f7400000000000000000000000000000000000000000000000000000000000000602082015250565b60006129d9602183611f9a565b91506129e48261297d565b604082019050919050565b60006020820190508181036000830152612a08816129cc565b9050919050565b6000819050919050565b612a2a612a2582611c0d565b612a0f565b82525050565b6000819050919050565b612a4b612a4682611e54565b612a30565b82525050565b6000612a5d8285612a19565b602082019150612a6d8284612a3a565b6020820191508190509392505050565b7f496e76616c696420766f74652072657665616c00000000000000000000000000600082015250565b6000612ab3601383611f9a565b9150612abe82612a7d565b602082019050919050565b60006020820190508181036000830152612ae281612aa6565b9050919050565b7f496e76616c696420636f6d6d69746d656e740000000000000000000000000000600082015250565b6000612b1f601283611f9a565b9150612b2a82612ae9565b602082019050919050565b60006020820190508181036000830152612b4e81612b12565b9050919050565b7f4e487b7100000000000000000000000000000000000000000000000000000000600052603260045260246000fd5b600081905092915050565b6000612b9a82611f8f565b612ba48185612b84565b9350612bb4818560208601611fab565b80840191505092915050565b7f2c20000000000000000000000000000000000000000000000000000000000000600082015250565b6000612bf6600283612b84565b9150612c0182612bc0565b600282019050919050565b6000612c188284612b8f565b9150612c2382612be9565b915081905092915050565b60008154612c3b8161251b565b612c458186612b84565b94506001821660008114612c605760018114612c7557612ca8565b60ff1983168652811515820286019350612ca8565b612c7e8561254c565b60005b83811015612ca057815481890152600182019150602081019050612c81565b838801955050505b50505092915050565b6000612cbd8285612b8f565b9150612cc98284612c2e565b91508190509392505050565b7f566f74657220697320616c726561647920726567697374657265640000000000600082015250565b6000612d0b601b83611f9a565b9150612d1682612cd5565b602082019050919050565b60006020820190508181036000830152612d3a81612cfe565b9050919050565b7f566f74696e67206973206e6f7420616374697665000000000000000000000000600082015250565b6000612d77601483611f9a565b9150612d8282612d41565b602082019050919050565b60006020820190508181036000830152612da681612d6a565b9050919050565b7f596f75206d757374206265207265676973746572656420746f20766f74650000600082015250565b6000612de3601e83611f9a565b9150612dee82612dad565b602082019050919050565b60006020820190508181036000830152612e1281612dd6565b9050919050565b7f596f75206861766520616c726561647920766f74656400000000000000000000600082015250565b6000612e4f601683611f9a565b9150612e5a82612e19565b602082019050919050565b60006020820190508181036000830152612e7e81612e42565b9050919050565b7f436f6d6d69746d656e7420616c72656164792065786973747300000000000000600082015250565b6000612ebb601983611f9a565b9150612ec682612e85565b602082019050919050565b60006020820190508181036000830152612eea81612eae565b9050919050565b612efa81611e54565b82525050565b6000604082019050612f156000830185611f80565b612f226020830184612ef1565b939250505056fe50726f706f73616c287329207769746820746865206d6f737420766f7465733a20a264697066735822122024ef2e523281ed779195b37ea78ab1fab105b69ab0c017db576e5cd08cb622e264736f6c634300081c0033",
  "linkReferences": {},
  "deployedLinkReferences": {}
}